{
  "abi": [
    {
      "type": "function",
      "name": "verifyProof",
      "inputs": [
        {
          "name": "_pA",
          "type": "uint256[2]",
          "internalType": "uint256[2]"
        },
        {
          "name": "_pB",
          "type": "uint256[2][2]",
          "internalType": "uint256[2][2]"
        },
        {
          "name": "_pC",
          "type": "uint256[2]",
          "internalType": "uint256[2]"
        },
        {
          "name": "_pubSignals",
          "type": "uint256[4]",
          "internalType": "uint256[4]"
        }
      ],
      "outputs": [
        {
          "name": "",
          "type": "bool",
          "internalType": "bool"
        }
      ],
      "stateMutability": "view"
    }
  ],
  "bytecode": {
    "object": "0x6080604052348015600e575f5ffd5b5061062e8061001c5f395ff3fe608060405234801561000f575f5ffd5b5060043610610029575f3560e01c80635fe8c13b1461002d575b5f5ffd5b61004061003b3660046105d7565b610054565b604051901515815260200160405180910390f35b5f61055c565b7f30644e72e131a029b85045b68181585d2833e84879b9709143e1f593f00000018110610089575f5f5260205ff35b50565b5f60405183815284602082015285604082015260408160608360076107d05a03fa9150816100bc575f5f5260205ff35b825160408201526020830151606082015260408360808360066107d05a03fa915050806100eb575f5f5260205ff35b5050505050565b7f2ade2c53047954a5ad6969e7b70f4ff608aacf111d8b66c1dc63226bcf6de2cf85527f2f3e090ff76f88f5d5a627f050342f39d9adc2c372fb733d6c02cc13a6f83ab260208601525f608086018661018e87357f0e77a72ecd48381c209fff0841c05918ebdabf07d37c5a3a71181b7d8deb2fb67f2d477aa96e1d137ce2e37c3748312b12e11405c67d24f2e4461d5f6f6306ada88461008c565b6101de60208801357f06950503de103bf7ce2326ec646d70e22bfa2cb4a8f0462dd1860b8b5bf40de17f0dc18689190366ef77dd4bc41b17e7a5df69c0694c5cbea68ce66e9934aa53df8461008c565b61022e60408801357f071bfb4e3df1c0c7a8afa33e3b2d3cba71c3d3db2b9fdc3e405dc3622975814a7f266ed03cdf008f2b491370a20c8d844a53392824a3de99e35d2c066b64f18cf98461008c565b61027e60608801357f1e92f69b1d359c02f7626d2f9c120914dd1f06328a444f51a8d51818335a97f17f124e3f33f588e75243a4263afb2c43ea42784fad36607b0a7c52c93ca21ba26f8461008c565b50823581527f30644e72e131a029b85045b68181585d97816a916871ca8d3c208c16d87cfd4760208401357f30644e72e131a029b85045b68181585d97816a916871ca8d3c208c16d87cfd4703066020820152833560408201526020840135606082015260408401356080820152606084013560a08201527f245229d9b076b3c0e8a4d70bde8c1cccffa08a9fae7557b165b3b0dbd653e2c760c08201527f253ec85988dbb84e46e94b5efa3373b47a000b4ac6c86b2d4b798d274a18230260e08201527f07090a82e8fabbd39299be24705b92cf208ee8b3487f6f2b39ff27978a29a1db6101008201527f2424bcc1f60a5472685fd50705b2809626e170120acaf441e133a2bd5e61d2446101208201527f0ae1135cffdaf227c5dc266740607aa930bc3bd92ddc2b135086d9da2dfd3e2a6101408201527f2b86859fd3d55c9d150fb3f0aeba798826493dd73d357ab0f9fdaced9fc818296101608201525f87015161018082015260205f018701516101a08201527f198e9393920d483a7260bfb731fb5d25f1aa493335a9e71297e485b7aef312c26101c08201527f1800deef121f1e76426a00665e5c4479674322d4f75edadd46debd5cd992f6ed6101e08201527f090689d0585ff075ec9e99ad690c3395bc4b313370b38ef355acdadcd122975b6102008201527f12c85ea5db8c6deb4aab71808dcb408fe3d1e7690c43d37b4ce6cc0166fa7daa610220820152843561024082015260208501356102608201527f1f1c19f8e758c9c72df662f40ca0869ed1794f47c584b7fc4f60bc450d04fe916102808201527f302542f4c6ca4486483a722fc1a80c42bf2affc703b830fb4ef1df92c9bceab36102a08201527f2748cb51245c087fc8a46cf7592bca57da2e6ab9a314794e8840f4845af75cec6102c08201527f20c96c77ffd34928fb9a9f8752d1b4a208a462b1f4ee8df23d5266d95898ccf56102e08201526020816103008360086107d05a03fa9051169695505050505050565b60405161038081016040526105735f84013561005a565b610580602084013561005a565b61058d604084013561005a565b61059a606084013561005a565b6105a7818486888a6100f2565b9050805f5260205ff35b80604081018310156105c1575f5ffd5b92915050565b80608081018310156105c1575f5ffd5b5f5f5f5f61018085870312156105eb575f5ffd5b6105f586866105b1565b935061060486604087016105c7565b92506106138660c087016105b1565b91506106238661010087016105c7565b90509295919450925056",
    "linkReferences": {}
  },
  "methodIdentifiers": {
    "verifyProof(uint256[2],uint256[2][2],uint256[2],uint256[4])": "5fe8c13b"
  },
  "id": 110
}