{
  "abi": [
    {
      "type": "constructor",
      "inputs": [
        {
          "name": "_entrypoint",
          "type": "address",
          "internalType": "address"
        },
        {
          "name": "_withdrawalVerifier",
          "type": "address",
          "internalType": "address"
        },
        {
          "name": "_ragequitVerifier",
          "type": "address",
          "internalType": "address"
        }
      ],
      "stateMutability": "nonpayable"
    },
    {
      "type": "function",
      "name": "ASSET",
      "inputs": [],
      "outputs": [
        {
          "name": "",
          "type": "address",
          "internalType": "address"
        }
      ],
      "stateMutability": "view"
    },
    {
      "type": "function",
      "name": "ENTRYPOINT",
      "inputs": [],
      "outputs": [
        {
          "name": "",
          "type": "address",
          "internalType": "contract IEntrypoint"
        }
      ],
      "stateMutability": "view"
    },
    {
      "type": "function",
      "name": "MAX_TREE_DEPTH",
      "inputs": [],
      "outputs": [
        {
          "name": "",
          "type": "uint32",
          "internalType": "uint32"
        }
      ],
      "stateMutability": "view"
    },
    {
      "type": "function",
      "name": "RAGEQUIT_VERIFIER",
      "inputs": [],
      "outputs": [
        {
          "name": "",
          "type": "address",
          "internalType": "contract IVerifier"
        }
      ],
      "stateMutability": "view"
    },
    {
      "type": "function",
      "name": "ROOT_HISTORY_SIZE",
      "inputs": [],
      "outputs": [
        {
          "name": "",
          "type": "uint32",
          "internalType": "uint32"
        }
      ],
      "stateMutability": "view"
    },
    {
      "type": "function",
      "name": "SCOPE",
      "inputs": [],
      "outputs": [
        {
          "name": "",
          "type": "uint256",
          "internalType": "uint256"
        }
      ],
      "stateMutability": "view"
    },
    {
      "type": "function",
      "name": "WITHDRAWAL_VERIFIER",
      "inputs": [],
      "outputs": [
        {
          "name": "",
          "type": "address",
          "internalType": "contract IVerifier"
        }
      ],
      "stateMutability": "view"
    },
    {
      "type": "function",
      "name": "currentRoot",
      "inputs": [],
      "outputs": [
        {
          "name": "_root",
          "type": "uint256",
          "internalType": "uint256"
        }
      ],
      "stateMutability": "view"
    },
    {
      "type": "function",
      "name": "currentRootIndex",
      "inputs": [],
      "outputs": [
        {
          "name": "",
          "type": "uint32",
          "internalType": "uint32"
        }
      ],
      "stateMutability": "view"
    },
    {
      "type": "function",
      "name": "currentTreeDepth",
      "inputs": [],
      "outputs": [
        {
          "name": "_depth",
          "type": "uint256",
          "internalType": "uint256"
        }
      ],
      "stateMutability": "view"
    },
    {
      "type": "function",
      "name": "currentTreeSize",
      "inputs": [],
      "outputs": [
        {
          "name": "_size",
          "type": "uint256",
          "internalType": "uint256"
        }
      ],
      "stateMutability": "view"
    },
    {
      "type": "function",
      "name": "dead",
      "inputs": [],
      "outputs": [
        {
          "name": "",
          "type": "bool",
          "internalType": "bool"
        }
      ],
      "stateMutability": "view"
    },
    {
      "type": "function",
      "name": "deposit",
      "inputs": [
        {
          "name": "_depositor",
          "type": "address",
          "internalType": "address"
        },
        {
          "name": "_value",
          "type": "uint256",
          "internalType": "uint256"
        },
        {
          "name": "_precommitmentHash",
          "type": "uint256",
          "internalType": "uint256"
        }
      ],
      "outputs": [
        {
          "name": "_commitment",
          "type": "uint256",
          "internalType": "uint256"
        }
      ],
      "stateMutability": "payable"
    },
    {
      "type": "function",
      "name": "depositors",
      "inputs": [
        {
          "name": "_label",
          "type": "uint256",
          "internalType": "uint256"
        }
      ],
      "outputs": [
        {
          "name": "_depositooor",
          "type": "address",
          "internalType": "address"
        }
      ],
      "stateMutability": "view"
    },
    {
      "type": "function",
      "name": "nonce",
      "inputs": [],
      "outputs": [
        {
          "name": "",
          "type": "uint256",
          "internalType": "uint256"
        }
      ],
      "stateMutability": "view"
    },
    {
      "type": "function",
      "name": "nullifierHashes",
      "inputs": [
        {
          "name": "_nullifierHash",
          "type": "uint256",
          "internalType": "uint256"
        }
      ],
      "outputs": [
        {
          "name": "_spent",
          "type": "bool",
          "internalType": "bool"
        }
      ],
      "stateMutability": "view"
    },
    {
      "type": "function",
      "name": "ragequit",
      "inputs": [
        {
          "name": "_proof",
          "type": "tuple",
          "internalType": "struct ProofLib.RagequitProof",
          "components": [
            {
              "name": "pA",
              "type": "uint256[2]",
              "internalType": "uint256[2]"
            },
            {
              "name": "pB",
              "type": "uint256[2][2]",
              "internalType": "uint256[2][2]"
            },
            {
              "name": "pC",
              "type": "uint256[2]",
              "internalType": "uint256[2]"
            },
            {
              "name": "pubSignals",
              "type": "uint256[4]",
              "internalType": "uint256[4]"
            }
          ]
        }
      ],
      "outputs": [],
      "stateMutability": "nonpayable"
    },
    {
      "type": "function",
      "name": "roots",
      "inputs": [
        {
          "name": "_index",
          "type": "uint256",
          "internalType": "uint256"
        }
      ],
      "outputs": [
        {
          "name": "_root",
          "type": "uint256",
          "internalType": "uint256"
        }
      ],
      "stateMutability": "view"
    },
    {
      "type": "function",
      "name": "windDown",
      "inputs": [],
      "outputs": [],
      "stateMutability": "nonpayable"
    },
    {
      "type": "function",
      "name": "withdraw",
      "inputs": [
        {
          "name": "_withdrawal",
          "type": "tuple",
          "internalType": "struct IPrivacyPool.Withdrawal",
          "components": [
            {
              "name": "processooor",
              "type": "address",
              "internalType": "address"
            },
            {
              "name": "data",
              "type": "bytes",
              "internalType": "bytes"
            }
          ]
        },
        {
          "name": "_proof",
          "type": "tuple",
          "internalType": "struct ProofLib.WithdrawProof",
          "components": [
            {
              "name": "pA",
              "type": "uint256[2]",
              "internalType": "uint256[2]"
            },
            {
              "name": "pB",
              "type": "uint256[2][2]",
              "internalType": "uint256[2][2]"
            },
            {
              "name": "pC",
              "type": "uint256[2]",
              "internalType": "uint256[2]"
            },
            {
              "name": "pubSignals",
              "type": "uint256[8]",
              "internalType": "uint256[8]"
            }
          ]
        }
      ],
      "outputs": [],
      "stateMutability": "nonpayable"
    },
    {
      "type": "event",
      "name": "Deposited",
      "inputs": [
        {
          "name": "_depositor",
          "type": "address",
          "indexed": true,
          "internalType": "address"
        },
        {
          "name": "_commitment",
          "type": "uint256",
          "indexed": false,
          "internalType": "uint256"
        },
        {
          "name": "_label",
          "type": "uint256",
          "indexed": false,
          "internalType": "uint256"
        },
        {
          "name": "_value",
          "type": "uint256",
          "indexed": false,
          "internalType": "uint256"
        },
        {
          "name": "_precommitmentHash",
          "type": "uint256",
          "indexed": false,
          "internalType": "uint256"
        }
      ],
      "anonymous": false
    },
    {
      "type": "event",
      "name": "LeafInserted",
      "inputs": [
        {
          "name": "_index",
          "type": "uint256",
          "indexed": false,
          "internalType": "uint256"
        },
        {
          "name": "_leaf",
          "type": "uint256",
          "indexed": false,
          "internalType": "uint256"
        },
        {
          "name": "_root",
          "type": "uint256",
          "indexed": false,
          "internalType": "uint256"
        }
      ],
      "anonymous": false
    },
    {
      "type": "event",
      "name": "PoolDied",
      "inputs": [],
      "anonymous": false
    },
    {
      "type": "event",
      "name": "Ragequit",
      "inputs": [
        {
          "name": "_ragequitter",
          "type": "address",
          "indexed": true,
          "internalType": "address"
        },
        {
          "name": "_commitment",
          "type": "uint256",
          "indexed": false,
          "internalType": "uint256"
        },
        {
          "name": "_label",
          "type": "uint256",
          "indexed": false,
          "internalType": "uint256"
        },
        {
          "name": "_value",
          "type": "uint256",
          "indexed": false,
          "internalType": "uint256"
        }
      ],
      "anonymous": false
    },
    {
      "type": "event",
      "name": "Withdrawn",
      "inputs": [
        {
          "name": "_processooor",
          "type": "address",
          "indexed": true,
          "internalType": "address"
        },
        {
          "name": "_value",
          "type": "uint256",
          "indexed": false,
          "internalType": "uint256"
        },
        {
          "name": "_spentNullifier",
          "type": "uint256",
          "indexed": false,
          "internalType": "uint256"
        },
        {
          "name": "_newCommitment",
          "type": "uint256",
          "indexed": false,
          "internalType": "uint256"
        }
      ],
      "anonymous": false
    },
    {
      "type": "error",
      "name": "ContextMismatch",
      "inputs": []
    },
    {
      "type": "error",
      "name": "FailedToSendNativeAsset",
      "inputs": []
    },
    {
      "type": "error",
      "name": "IncorrectASPRoot",
      "inputs": []
    },
    {
      "type": "error",
      "name": "InsufficientValue",
      "inputs": []
    },
    {
      "type": "error",
      "name": "InvalidCommitment",
      "inputs": []
    },
    {
      "type": "error",
      "name": "InvalidDepositValue",
      "inputs": []
    },
    {
      "type": "error",
      "name": "InvalidProcessooor",
      "inputs": []
    },
    {
      "type": "error",
      "name": "InvalidProof",
      "inputs": []
    },
    {
      "type": "error",
      "name": "InvalidTreeDepth",
      "inputs": []
    },
    {
      "type": "error",
      "name": "LeafAlreadyExists",
      "inputs": []
    },
    {
      "type": "error",
      "name": "LeafCannotBeZero",
      "inputs": []
    },
    {
      "type": "error",
      "name": "LeafGreaterThanSnarkScalarField",
      "inputs": []
    },
    {
      "type": "error",
      "name": "MaxTreeDepthReached",
      "inputs": []
    },
    {
      "type": "error",
      "name": "NotYetRagequitteable",
      "inputs": []
    },
    {
      "type": "error",
      "name": "NullifierAlreadySpent",
      "inputs": []
    },
    {
      "type": "error",
      "name": "OnlyEntrypoint",
      "inputs": []
    },
    {
      "type": "error",
      "name": "OnlyOriginalDepositor",
      "inputs": []
    },
    {
      "type": "error",
      "name": "PoolIsDead",
      "inputs": []
    },
    {
      "type": "error",
      "name": "ScopeMismatch",
      "inputs": []
    },
    {
      "type": "error",
      "name": "UnknownStateRoot",
      "inputs": []
    },
    {
      "type": "error",
      "name": "ZeroAddress",
      "inputs": []
    }
  ],
  "bytecode": {
    "object": "0x610120604052348015610010575f5ffd5b50604051611f20380380611f2083398101604081905261002f91610181565b82828273eeeeeeeeeeeeeeeeeeeeeeeeeeeeeeeeeeeeeeee808484846001600160a01b0383166100725760405163d92e233d60e01b815260040160405180910390fd5b6001600160a01b0381166100995760405163d92e233d60e01b815260040160405180910390fd5b6001600160a01b0382166100c05760405163d92e233d60e01b815260040160405180910390fd5b6001600160a01b0384166080526040516001600160601b031930606090811b8216602084015246603484015286901b1660548201527f30644e72e131a029b85045b68181585d2833e84879b9709143e1f593f000000190606801604051602081830303815290604052805190602001205f1c61013c91906101c1565b60a0526001600160a01b0392831660c05290821660e0521661010052506101e09650505050505050565b80516001600160a01b038116811461017c575f5ffd5b919050565b5f5f5f60608486031215610193575f5ffd5b61019c84610166565b92506101aa60208501610166565b91506101b860408501610166565b90509250925092565b5f826101db57634e487b7160e01b5f52601260045260245ffd5b500690565b60805160a05160c05160e05161010051611cd261024e5f395f81816103a70152610bed01525f81816102c801526109f101525f818161042f0152818161048c015281816109240152610da601525f81816101f10152818161058d01526107f301525f61023d0152611cd25ff3fe608060405260043610610157575f3560e01c8063a8f0f95a116100bb578063da66292511610071578063e4b2fb7911610057578063e4b2fb79146103dd578063e8eb3cc61461041e578063fdab463d14610451575f5ffd5b8063da66292514610396578063e38df5f0146103c9575f5ffd5b8063b85c5145116100a1578063b85c514514610343578063c2b40ae414610357578063cd87a3b414610382575f5ffd5b8063a8f0f95a1461031b578063affed0e01461032f575f5ffd5b80634800d97f1161011057806371235b34116100f657806371235b34146102985780638735eb2b146102b757806390eeb02b146102ea575f5ffd5b80634800d97f1461022c5780634a2b75c814610284575f5ffd5b806330c0766d1161014057806330c0766d146101bf57806333d09200146101e057806336cf7c8714610213575f5ffd5b80630efe6a8b1461015b5780631f79a1e914610181575b5f5ffd5b61016e610169366004611453565b610473565b6040519081526020015b60405180910390f35b34801561018c575f5ffd5b506101af61019b366004611483565b60086020525f908152604090205460ff1681565b6040519015158152602001610178565b3480156101ca575f5ffd5b506101de6101d93660046116bc565b610765565b005b3480156101eb575f5ffd5b5061016e7f000000000000000000000000000000000000000000000000000000000000000081565b34801561021e575f5ffd5b506001546101af9060ff1681565b348015610237575f5ffd5b5061025f7f000000000000000000000000000000000000000000000000000000000000000081565b60405173ffffffffffffffffffffffffffffffffffffffff9091168152602001610178565b34801561028f575f5ffd5b5060055461016e565b3480156102a3575f5ffd5b506101de6102b23660046117c9565b610b82565b3480156102c2575f5ffd5b5061025f7f000000000000000000000000000000000000000000000000000000000000000081565b3480156102f5575f5ffd5b506003546103069063ffffffff1681565b60405163ffffffff9091168152602001610178565b348015610326575f5ffd5b5060045461016e565b34801561033a575f5ffd5b5061016e5f5481565b34801561034e575f5ffd5b506101de610d8e565b348015610362575f5ffd5b5061016e610371366004611483565b60026020525f908152604090205481565b34801561038d575f5ffd5b50610306604081565b3480156103a1575f5ffd5b5061025f7f000000000000000000000000000000000000000000000000000000000000000081565b3480156103d4575f5ffd5b50610306602081565b3480156103e8575f5ffd5b5061025f6103f7366004611483565b60096020525f908152604090205473ffffffffffffffffffffffffffffffffffffffff1681565b348015610429575f5ffd5b5061025f7f000000000000000000000000000000000000000000000000000000000000000081565b34801561045c575f5ffd5b506005545f9081526006602052604090205461016e565b5f3373ffffffffffffffffffffffffffffffffffffffff7f000000000000000000000000000000000000000000000000000000000000000016146104e3576040517f8247bd8000000000000000000000000000000000000000000000000000000000815260040160405180910390fd5b60015460ff1615610520576040517f924b372700000000000000000000000000000000000000000000000000000000815260040160405180910390fd5b6fffffffffffffffffffffffffffffffff8310610569576040517f428243e200000000000000000000000000000000000000000000000000000000815260040160405180910390fd5b5f7f30644e72e131a029b85045b68181585d2833e84879b9709143e1f593f00000017f00000000000000000000000000000000000000000000000000000000000000005f5f81546105b9906118a4565b9182905550604080516020810193909352820152606001604051602081830303815290604052805190602001205f1c6105f29190611908565b5f8181526009602090815260409182902080547fffffffffffffffffffffffff00000000000000000000000000000000000000001673ffffffffffffffffffffffffffffffffffffffff8a16179055815160608101835287815290810183905280820186905290517f20cf0a3700000000000000000000000000000000000000000000000000000000815291925073__$f6445d80c6f958e74d2ce02826cd200ff5$__916320cf0a37916106a89160040161191b565b602060405180830381865af41580156106c3573d5f5f3e3d5ffd5b505050506040513d601f19601f820116820180604052508101906106e7919061194b565b91506106f282610e8e565b506106fd3385610f8d565b60408051838152602081018390529081018590526060810184905273ffffffffffffffffffffffffffffffffffffffff8616907fe3b53cd1a44fbf11535e145d80b8ef1ed6d57a73bf5daa7e939b6b01657d65499060800160405180910390a2509392505050565b8181815f015173ffffffffffffffffffffffffffffffffffffffff163373ffffffffffffffffffffffffffffffffffffffff16146107cf576040517f1a7c48e500000000000000000000000000000000000000000000000000000000815260040160405180910390fd5b7f30644e72e131a029b85045b68181585d2833e84879b9709143e1f593f0000001827f0000000000000000000000000000000000000000000000000000000000000000604051602001610823929190611962565b604051602081830303815290604052805190602001205f1c6108459190611908565b61084e82610fca565b14610885576040517fef6daeb000000000000000000000000000000000000000000000000000000000815260040160405180910390fd5b602061089082610fdf565b11806108a4575060206108a282610fed565b115b156108db576040517fc21cc8e200000000000000000000000000000000000000000000000000000000815260040160405180910390fd5b6108ec6108e782610ffb565b611009565b610922576040517ffd3d3c4c00000000000000000000000000000000000000000000000000000000815260040160405180910390fd5b7f000000000000000000000000000000000000000000000000000000000000000073ffffffffffffffffffffffffffffffffffffffff1663d7b0fef16040518163ffffffff1660e01b8152600401602060405180830381865afa15801561098b573d5f5f3e3d5ffd5b505050506040513d601f19601f820116820180604052508101906109af919061194b565b6109b88261108c565b146109ef576040517fa6a7824400000000000000000000000000000000000000000000000000000000815260040160405180910390fd5b7f000000000000000000000000000000000000000000000000000000000000000073ffffffffffffffffffffffffffffffffffffffff1663c9219a7a845f01518560200151866040015187606001516040518563ffffffff1660e01b8152600401610a5d9493929190611a3b565b6020604051808303815f875af1158015610a79573d5f5f3e3d5ffd5b505050506040513d601f19601f82011682018060405250810190610a9d9190611a97565b610ad3576040517f09bde33900000000000000000000000000000000000000000000000000000000815260040160405180910390fd5b610ae4610adf8461109a565b6110a8565b610af5610af084611128565b610e8e565b508351610b0a90610b0585611135565b611143565b835173ffffffffffffffffffffffffffffffffffffffff167f75e161b3e824b114fc1a33274bd7091918dd4e639cede50b78b15a4eea956a21610b4c85611135565b610b558661109a565b610b5e87611128565b6040805193845260208401929092529082015260600160405180910390a250505050565b5f610b8c82610ffb565b5f8181526009602052604090205490915073ffffffffffffffffffffffffffffffffffffffff163314610beb576040517f0fb8e27800000000000000000000000000000000000000000000000000000000815260040160405180910390fd5b7f000000000000000000000000000000000000000000000000000000000000000073ffffffffffffffffffffffffffffffffffffffff16635fe8c13b835f01518460200151856040015186606001516040518563ffffffff1660e01b8152600401610c599493929190611abd565b6020604051808303815f875af1158015610c75573d5f5f3e3d5ffd5b505050506040513d601f19601f82011682018060405250810190610c999190611a97565b610ccf576040517f09bde33900000000000000000000000000000000000000000000000000000000815260040160405180910390fd5b610ce0610cdb83611128565b6111de565b610d16576040517fc06789fa00000000000000000000000000000000000000000000000000000000815260040160405180910390fd5b610d22610adf8361109a565b610d2f33610b0584611135565b337fd2b3e868ae101106371f2bd93abc8d5a4de488b9fe47ed122c23625aa7172f13610d5a84611128565b610d6385610ffb565b610d6c86611135565b6040805193845260208401929092529082015260600160405180910390a25050565b3373ffffffffffffffffffffffffffffffffffffffff7f00000000000000000000000000000000000000000000000000000000000000001614610dfd576040517f8247bd8000000000000000000000000000000000000000000000000000000000815260040160405180910390fd5b60015460ff1615610e3a576040517f924b372700000000000000000000000000000000000000000000000000000000815260040160405180910390fd5b600180547fffffffffffffffffffffffffffffffffffffffffffffffffffffffffffffff0016811790556040517ff9dc79d7254099fdf1f86b15c91deac3bf8883e4f340ebef6e3c6b870cc315b3905f90a1565b5f610e9a6004836111f5565b60055490915060201015610eda576040517f221f404100000000000000000000000000000000000000000000000000000000815260040160405180910390fd5b6003545f90604090610ef39063ffffffff166001611b0d565b610efd9190611b29565b63ffffffff81165f81815260026020908152604091829020869055600380547fffffffffffffffffffffffffffffffffffffffffffffffffffffffff0000000016909317909255600454815190815291820186905281018490529091507fcb249c8292372bd11f567786635483fca9e635030baafca55ff1a8940141d2219060600160405180910390a150919050565b803414610fc6576040517f1101129400000000000000000000000000000000000000000000000000000000815260040160405180910390fd5b5050565b60608101515f9060075b602002015192915050565b60608101515f906004610fd4565b60608101515f906006610fd4565b60608101515f906003610fd4565b5f815f0361101857505f919050565b60035463ffffffff165f5b604063ffffffff821610156110835763ffffffff82165f908152600260205260409020548403611057575060019392505050565b604060016110658285611b0d565b61106f9190611b50565b6110799190611b29565b9150600101611023565b505f9392505050565b60608101515f906005610fd4565b60608101515f906001610fd4565b5f8181526008602052604090205460ff16156110f0576040517fb115d85700000000000000000000000000000000000000000000000000000000815260040160405180910390fd5b5f90815260086020526040902080547fffffffffffffffffffffffffffffffffffffffffffffffffffffffffffffff00166001179055565b60608101515f9081610fd4565b60608101515f906002610fd4565b5f8273ffffffffffffffffffffffffffffffffffffffff16826040515f6040518083038185875af1925050503d805f8114611199576040519150601f19603f3d011682016040523d82523d5f602084013e61119e565b606091505b50509050806111d9576040517fd58db96200000000000000000000000000000000000000000000000000000000815260040160405180910390fd5b505050565b5f8181526007602052604081205415155b92915050565b5f7f30644e72e131a029b85045b68181585d2833e84879b9709143e1f593f0000001821061124f576040517fc380a82e00000000000000000000000000000000000000000000000000000000815260040160405180910390fd5b815f03611288576040517f29691be200000000000000000000000000000000000000000000000000000000815260040160405180910390fd5b5f828152600384016020526040902054156112cf576040517f258a195a00000000000000000000000000000000000000000000000000000000815260040160405180910390fd5b8254600180850154906112e3908390611b6c565b6112ee826002611ca0565b1015611300576112fd816118a4565b90505b60018501819055835f5b828110156113f1578084901c6001166001036113d6576040805180820182525f83815260028a01602090815290839020548252810184905290517f561558fe00000000000000000000000000000000000000000000000000000000815273__$cc5cc6be2a21b973d664926dadcce79f17$__9163561558fe916113909190600401611cab565b602060405180830381865af41580156113ab573d5f5f3e3d5ffd5b505050506040513d601f19601f820116820180604052508101906113cf919061194b565b91506113e9565b5f81815260028801602052604090208290555b60010161130a565b506113fb836118a4565b8087555f928352600287016020908152604080852084905596845260039097019096529390209390935550919050565b803573ffffffffffffffffffffffffffffffffffffffff8116811461144e575f5ffd5b919050565b5f5f5f60608486031215611465575f5ffd5b61146e8461142b565b95602085013595506040909401359392505050565b5f60208284031215611493575f5ffd5b5035919050565b7f4e487b71000000000000000000000000000000000000000000000000000000005f52604160045260245ffd5b6040516080810167ffffffffffffffff811182821017156114ea576114ea61149a565b60405290565b6040805190810167ffffffffffffffff811182821017156114ea576114ea61149a565b604051601f82017fffffffffffffffffffffffffffffffffffffffffffffffffffffffffffffffe016810167ffffffffffffffff8111828210171561155a5761155a61149a565b604052919050565b5f82601f830112611571575f5ffd5b5f61157c6040611513565b905080604084018581111561158f575f5ffd5b845b818110156115a9578035835260209283019201611591565b509195945050505050565b5f82601f8301126115c3575f5ffd5b60406115ce81611513565b8060808501868111156115df575f5ffd5b855b81811015611602576115f38882611562565b845260209093019284016115e1565b50909695505050505050565b5f610200828403121561161f575f5ffd5b6116276114c7565b90506116338383611562565b815261164283604084016115b4565b60208201526116548360c08401611562565b60408201525f8361011f840112611669575f5ffd5b505f8061010061167881611513565b915081925061020085018681111561168e575f5ffd5b908501905b808210156116ae578135845260209384019390910190611693565b505060608301525092915050565b5f5f61022083850312156116ce575f5ffd5b823567ffffffffffffffff8111156116e4575f5ffd5b8301604081860312156116f5575f5ffd5b6116fd6114f0565b6117068261142b565b8152602082013567ffffffffffffffff811115611721575f5ffd5b80830192505085601f830112611735575f5ffd5b813567ffffffffffffffff81111561174f5761174f61149a565b61178060207fffffffffffffffffffffffffffffffffffffffffffffffffffffffffffffffe0601f84011601611513565b818152876020838601011115611794575f5ffd5b816020850160208301375f60208383010152806020840152505080935050506117c0846020850161160e565b90509250929050565b5f6101808284031280156117db575f5ffd5b505f806117e66114c7565b91506117f28585611562565b825261180185604086016115b4565b60208301526118138560c08601611562565b60408301528461011f850112611827575f5ffd5b505f806118346080611513565b905080915061018085018681111561184a575f5ffd5b61010086015b81811015611868578035845260209384019301611850565b50506060830152509392505050565b7f4e487b71000000000000000000000000000000000000000000000000000000005f52601160045260245ffd5b5f7fffffffffffffffffffffffffffffffffffffffffffffffffffffffffffffffff82036118d4576118d4611877565b5060010190565b7f4e487b71000000000000000000000000000000000000000000000000000000005f52601260045260245ffd5b5f82611916576119166118db565b500690565b6060810181835f5b6003811015611942578151835260209283019290910190600101611923565b50505092915050565b5f6020828403121561195b575f5ffd5b5051919050565b6040815273ffffffffffffffffffffffffffffffffffffffff83511660408201525f6020840151604060608401528051806080850152806020830160a086015e5f60a0828601015260a07fffffffffffffffffffffffffffffffffffffffffffffffffffffffffffffffe0601f830116850101925050508260208301529392505050565b805f5b6002811015611a085781518452602093840193909101906001016119e9565b50505050565b805f5b6002811015611a0857611a258483516119e6565b6040939093019260209190910190600101611a11565b6102008101611a4a82876119e6565b611a576040830186611a0e565b611a6460c08301856119e6565b6101008201835f5b6008811015611a8b578151835260209283019290910190600101611a6c565b50505095945050505050565b5f60208284031215611aa7575f5ffd5b81518015158114611ab6575f5ffd5b9392505050565b6101808101611acc82876119e6565b611ad96040830186611a0e565b611ae660c08301856119e6565b6101008201835f5b6004811015611a8b578151835260209283019290910190600101611aee565b63ffffffff81811683821601908111156111ef576111ef611877565b5f63ffffffff831680611b3e57611b3e6118db565b8063ffffffff84160691505092915050565b63ffffffff82811682821603908111156111ef576111ef611877565b808201808211156111ef576111ef611877565b6001815b6001841115611bba57808504811115611b9e57611b9e611877565b6001841615611bac57908102905b60019390931c928002611b83565b935093915050565b5f82611bd0575060016111ef565b81611bdc57505f6111ef565b8160018114611bf25760028114611bfc57611c18565b60019150506111ef565b60ff841115611c0d57611c0d611877565b50506001821b6111ef565b5060208310610133831016604e8410600b8410161715611c3b575081810a6111ef565b611c667fffffffffffffffffffffffffffffffffffffffffffffffffffffffffffffffff8484611b7f565b807fffffffffffffffffffffffffffffffffffffffffffffffffffffffffffffffff04821115611c9857611c98611877565b029392505050565b5f611ab68383611bc2565b6040810181835f5b6002811015611942578151835260209283019290910190600101611cb356",
    "linkReferences": {
      "../../node_modules/poseidon-solidity/PoseidonT3.sol": {
        "PoseidonT3": [
          {
            "start": 5559,
            "length": 20
          }
        ]
      },
      "../../node_modules/poseidon-solidity/PoseidonT4.sol": {
        "PoseidonT4": [
          {
            "start": 2256,
            "length": 20
          }
        ]
      }
    }
  },
  "methodIdentifiers": {
    "ASSET()": "4800d97f",
    "ENTRYPOINT()": "e8eb3cc6",
    "MAX_TREE_DEPTH()": "e38df5f0",
    "RAGEQUIT_VERIFIER()": "da662925",
    "ROOT_HISTORY_SIZE()": "cd87a3b4",
    "SCOPE()": "33d09200",
    "WITHDRAWAL_VERIFIER()": "8735eb2b",
    "currentRoot()": "fdab463d",
    "currentRootIndex()": "90eeb02b",
    "currentTreeDepth()": "4a2b75c8",
    "currentTreeSize()": "a8f0f95a",
    "dead()": "36cf7c87",
    "deposit(address,uint256,uint256)": "0efe6a8b",
    "depositors(uint256)": "e4b2fb79",
    "nonce()": "affed0e0",
    "nullifierHashes(uint256)": "1f79a1e9",
    "ragequit((uint256[2],uint256[2][2],uint256[2],uint256[4]))": "71235b34",
    "roots(uint256)": "c2b40ae4",
    "windDown()": "b85c5145",
    "withdraw((address,bytes),(uint256[2],uint256[2][2],uint256[2],uint256[8]))": "30c0766d"
  },
  "id": 106
}