{
  "abi": [
    {
      "type": "function",
      "name": "verifyProof",
      "inputs": [
        {
          "name": "_pA",
          "type": "uint256[2]",
          "internalType": "uint256[2]"
        },
        {
          "name": "_pB",
          "type": "uint256[2][2]",
          "internalType": "uint256[2][2]"
        },
        {
          "name": "_pC",
          "type": "uint256[2]",
          "internalType": "uint256[2]"
        },
        {
          "name": "_pubSignals",
          "type": "uint256[8]",
          "internalType": "uint256[8]"
        }
      ],
      "outputs": [
        {
          "name": "",
          "type": "bool",
          "internalType": "bool"
        }
      ],
      "stateMutability": "view"
    }
  ],
  "bytecode": {
    "object": "0x6080604052348015600e575f5ffd5b5061079b8061001c5f395ff3fe608060405234801561000f575f5ffd5b5060043610610029575f3560e01c8063c9219a7a1461002d575b5f5ffd5b61004061003b366004610739565b610054565b604051901515815260200160405180910390f35b5f61069a565b7f30644e72e131a029b85045b68181585d2833e84879b9709143e1f593f00000018110610089575f5f5260205ff35b50565b5f60405183815284602082015285604082015260408160608360076107d05a03fa9150816100bc575f5f5260205ff35b825160408201526020830151606082015260408360808360066107d05a03fa915050806100eb575f5f5260205ff35b5050505050565b7f2e3f15ca0e087b7f48dce82a6876f02489bb578631a83458d87e580afa75ab8585527f1fa2b469eb7621c286837cbba8e9d524b01c3b670cb6391ef722d9392a8e89a560208601525f608086018661018e87357f2add88562182b89f45f48a16790ce2c62b4e1ebdbda6758c02b7e1675c5af6ee7f08d93b65fb2b4a515e81b2ab3b22d1d75d9f34669f956310e7e63e8a6899e8588461008c565b6101de60208801357f2b4a85ed815e83559c3181c4293bbf71be41dbde75cc14bb17ba2b80b9bae4d67f0967bfab48a43033827d689c0f9043c7b2a0c77db5492677668909a624b990e88461008c565b61022e60408801357f1a531d94a667a7cb2792cb3983fcf5109de74da944c3073b8772f49399ecbb167f1c5d0a9e48db2c637c0ece5a852f719b48ffbfa9ce9aeb8c980147c1178b27bf8461008c565b61027e60608801357f25ecd19d9a51ec7d6d450ab2beec9b6c387d6993e6c076ae2b3ea97d8ed1c3107f2112c9ae2b1341b915e8b3b7211d53bfadc334ee7f641b63aae8ca7084b759728461008c565b6102cd60808801357f0e788b5e81533e425ab999b42ef78ba19a1250ced3b46e172879ee81794284937edacdcb0c339f0563741bb942ca1fcd7804f374beec8b2dcb21f1cb9e4a6a318461008c565b61031d60a08801357f0d22fa52971b070b46f574f414293bb2298ac685c5ec52cdd66e2580412cba4e7f1fd92166e89ed9e6eb979ed2fe7562ca45f20abef7fb7711e8a13f340c64350c8461008c565b61036d60c08801357f2b93d9ad8aee9dc2348e6da82c8ca65f02ee8dd0bccbe41e266f2cbdcc94ad767f0e93b09bee364673b9808f90b88e2718387dbf6b0d84f538a2f7e671624ae0318461008c565b6103bd60e08801357f047f4a5ba16de1f449c9d04173b9d0c3fd2dd40ee9ced150c03648b2ebd661447f1e9512a844a821c28d81ae3ab3881b7864ed5fae912a029383d7a4c8c0be1c448461008c565b50823581527f30644e72e131a029b85045b68181585d97816a916871ca8d3c208c16d87cfd4760208401357f30644e72e131a029b85045b68181585d97816a916871ca8d3c208c16d87cfd4703066020820152833560408201526020840135606082015260408401356080820152606084013560a08201527f245229d9b076b3c0e8a4d70bde8c1cccffa08a9fae7557b165b3b0dbd653e2c760c08201527f253ec85988dbb84e46e94b5efa3373b47a000b4ac6c86b2d4b798d274a18230260e08201527f07090a82e8fabbd39299be24705b92cf208ee8b3487f6f2b39ff27978a29a1db6101008201527f2424bcc1f60a5472685fd50705b2809626e170120acaf441e133a2bd5e61d2446101208201527f0ae1135cffdaf227c5dc266740607aa930bc3bd92ddc2b135086d9da2dfd3e2a6101408201527f2b86859fd3d55c9d150fb3f0aeba798826493dd73d357ab0f9fdaced9fc818296101608201525f87015161018082015260205f018701516101a08201527f198e9393920d483a7260bfb731fb5d25f1aa493335a9e71297e485b7aef312c26101c08201527f1800deef121f1e76426a00665e5c4479674322d4f75edadd46debd5cd992f6ed6101e08201527f090689d0585ff075ec9e99ad690c3395bc4b313370b38ef355acdadcd122975b6102008201527f12c85ea5db8c6deb4aab71808dcb408fe3d1e7690c43d37b4ce6cc0166fa7daa610220820152843561024082015260208501356102608201527ec9560dfa0911f375e8225b33d9bd2d707bd3729c628cf5d0e94eab2ba53ef76102808201527f19277684a5069d1a65cb37928e6b969d40187ab23296a35227ebf0d3f58fbe096102a08201527f20c8ac7d5d6ba4db6ca057163ccba43def21d2a35b0829578659839340d5f4bf6102c08201527f20ffa16778bd754333e431c81f0de4f5cd59caad70e9a173b25928e25e3abd086102e08201526020816103008360086107d05a03fa9051169695505050505050565b60405161038081016040526106b15f84013561005a565b6106be602084013561005a565b6106cb604084013561005a565b6106d8606084013561005a565b6106e5608084013561005a565b6106f260a084013561005a565b6106ff60c084013561005a565b61070c60e084013561005a565b610719818486888a6100f2565b9050805f5260205ff35b8060408101831015610733575f5ffd5b92915050565b5f5f5f5f610200858703121561074d575f5ffd5b6107578686610723565b935060c0850186811115610769575f5ffd5b6040860193506107798782610723565b925050856102008601111561078c575f5ffd5b5091949093509091610100019056",
    "linkReferences": {}
  },
  "methodIdentifiers": {
    "verifyProof(uint256[2],uint256[2][2],uint256[2],uint256[8])": "c9219a7a"
  },
  "id": 111
}